{
  "contractName": "Stake",
  "abi": [
    {
      "inputs": [],
      "payable": false,
      "stateMutability": "nonpayable",
      "type": "constructor"
    },
    {
      "constant": true,
      "inputs": [],
      "name": "synthetixResolver",
      "outputs": [
        {
          "internalType": "contract IAddressResolver",
          "name": "",
          "type": "address"
        }
      ],
      "payable": false,
      "stateMutability": "view",
      "type": "function"
    },
    {
      "constant": false,
      "inputs": [],
      "name": "synthetixIssue",
      "outputs": [],
      "payable": false,
      "stateMutability": "nonpayable",
      "type": "function"
    },
    {
      "constant": false,
      "inputs": [
        {
          "internalType": "address",
          "name": "user",
          "type": "address"
        }
      ],
      "name": "synthetixIssueOnBehalf",
      "outputs": [],
      "payable": false,
      "stateMutability": "nonpayable",
      "type": "function"
    }
  ],
  "bytecode": "0x608060405234801561001057600080fd5b5073567357d7803161c1ed782e9395735621b7954dde6000806101000a81548173ffffffffffffffffffffffffffffffffffffffff021916908373ffffffffffffffffffffffffffffffffffffffff1602179055506103d8806100746000396000f3fe608060405234801561001057600080fd5b50600436106100415760003560e01c8063153cd7161461004657806341693bb414610090578063cf5d06271461009a575b600080fd5b61004e6100de565b604051808273ffffffffffffffffffffffffffffffffffffffff1673ffffffffffffffffffffffffffffffffffffffff16815260200191505060405180910390f35b610098610103565b005b6100dc600480360360208110156100b057600080fd5b81019080803573ffffffffffffffffffffffffffffffffffffffff169060200190929190505050610237565b005b6000809054906101000a900473ffffffffffffffffffffffffffffffffffffffff1681565b60008060009054906101000a900473ffffffffffffffffffffffffffffffffffffffff1673ffffffffffffffffffffffffffffffffffffffff166321f8a7216040518163ffffffff1660e01b815260040180807f53796e7468657469780000000000000000000000000000000000000000000000815250602001905060206040518083038186803b15801561019757600080fd5b505afa1580156101ab573d6000803e3d6000fd5b505050506040513d60208110156101c157600080fd5b810190808051906020019092919050505090508073ffffffffffffffffffffffffffffffffffffffff1663af086c7e6040518163ffffffff1660e01b8152600401600060405180830381600087803b15801561021c57600080fd5b505af1158015610230573d6000803e3d6000fd5b5050505050565b60008060009054906101000a900473ffffffffffffffffffffffffffffffffffffffff1673ffffffffffffffffffffffffffffffffffffffff166321f8a7216040518163ffffffff1660e01b815260040180807f53796e7468657469780000000000000000000000000000000000000000000000815250602001905060206040518083038186803b1580156102cb57600080fd5b505afa1580156102df573d6000803e3d6000fd5b505050506040513d60208110156102f557600080fd5b810190808051906020019092919050505090508073ffffffffffffffffffffffffffffffffffffffff1663320223db836040518263ffffffff1660e01b8152600401808273ffffffffffffffffffffffffffffffffffffffff1673ffffffffffffffffffffffffffffffffffffffff168152602001915050600060405180830381600087803b15801561038757600080fd5b505af115801561039b573d6000803e3d6000fd5b50505050505056fea265627a7a72315820effb7d1f7da013fd09014c21b269f279ec8f3c011dbcd3d17007cbfac84eec2964736f6c63430005100032",
  "source": "pragma solidity >=0.4.21 <8.10.0;\r\n\r\nimport \"./Interfaces/IAddressResolver.sol\";\r\nimport \"./Interfaces/ISynthetix.sol\";\r\n\r\ncontract Stake {\r\n    IAddressResolver public synthetixResolver;\r\n\r\n    constructor() public {\r\n        synthetixResolver = IAddressResolver(\r\n            0x567357D7803161C1eD782e9395735621B7954dDE\r\n        );\r\n    }\r\n\r\n    function synthetixIssue() external {\r\n        ISynthetix synthetix = ISynthetix(\r\n            synthetixResolver.getAddress(\"Synthetix\")\r\n        );\r\n        synthetix.issueMaxSynths();\r\n    }\r\n\r\n    function synthetixIssueOnBehalf(address user) external {\r\n        ISynthetix synthetix = ISynthetix(\r\n            synthetixResolver.getAddress(\"Synthetix\")\r\n        );\r\n        synthetix.issueMaxSynthsOnBehalf(user);\r\n    }\r\n}\r\n",
  "sourcePath": "C:\\Users\\prana\\OneDrive\\Desktop\\SecureClaims\\contracts\\Stake.sol",
  "compiler": {
    "name": "solc",
    "version": "0.5.16+commit.9c3226ce.Emscripten.clang"
  },
  "schemaVersion": "3.4.5",
  "updatedAt": "2022-04-16T11:46:59.152Z",
  "devdoc": {
    "methods": {}
  },
  "userdoc": {
    "methods": {}
  }
}