{
  "contractName": "Transactions",
  "abi": [
    {
      "inputs": [],
      "payable": false,
      "stateMutability": "nonpayable",
      "type": "constructor"
    },
    {
      "anonymous": false,
      "inputs": [
        {
          "indexed": false,
          "internalType": "address",
          "name": "from",
          "type": "address"
        },
        {
          "indexed": false,
          "internalType": "address",
          "name": "to",
          "type": "address"
        },
        {
          "indexed": false,
          "internalType": "uint256",
          "name": "amount",
          "type": "uint256"
        }
      ],
      "name": "Sent",
      "type": "event"
    },
    {
      "constant": true,
      "inputs": [
        {
          "internalType": "address",
          "name": "",
          "type": "address"
        }
      ],
      "name": "balances",
      "outputs": [
        {
          "internalType": "uint256",
          "name": "",
          "type": "uint256"
        }
      ],
      "payable": false,
      "stateMutability": "view",
      "type": "function"
    },
    {
      "constant": true,
      "inputs": [],
      "name": "sender",
      "outputs": [
        {
          "internalType": "address",
          "name": "",
          "type": "address"
        }
      ],
      "payable": false,
      "stateMutability": "view",
      "type": "function"
    },
    {
      "constant": false,
      "inputs": [
        {
          "internalType": "address",
          "name": "receiver",
          "type": "address"
        },
        {
          "internalType": "uint256",
          "name": "amount",
          "type": "uint256"
        }
      ],
      "name": "stake",
      "outputs": [],
      "payable": true,
      "stateMutability": "payable",
      "type": "function"
    }
  ],
  "bytecode": "0x608060405234801561001057600080fd5b50336000806101000a81548173ffffffffffffffffffffffffffffffffffffffff021916908373ffffffffffffffffffffffffffffffffffffffff16021790555061022b806100606000396000f3fe6080604052600436106100345760003560e01c806327e235e31461003957806367e404ce1461009e578063adc9772e146100f5575b600080fd5b34801561004557600080fd5b506100886004803603602081101561005c57600080fd5b81019080803573ffffffffffffffffffffffffffffffffffffffff169060200190929190505050610143565b6040518082815260200191505060405180910390f35b3480156100aa57600080fd5b506100b361015b565b604051808273ffffffffffffffffffffffffffffffffffffffff1673ffffffffffffffffffffffffffffffffffffffff16815260200191505060405180910390f35b6101416004803603604081101561010b57600080fd5b81019080803573ffffffffffffffffffffffffffffffffffffffff16906020019092919080359060200190929190505050610180565b005b60016020528060005260406000206000915090505481565b6000809054906101000a900473ffffffffffffffffffffffffffffffffffffffff1681565b789f4f2726179a224501d762422c946590d9100000000000000081106101a557600080fd5b80600160008473ffffffffffffffffffffffffffffffffffffffff1673ffffffffffffffffffffffffffffffffffffffff16815260200190815260200160002060008282540192505081905550505056fea265627a7a723158205d065e205a3cc5d5434a4f6773a1fcd2a48d6fe757346778027968ca62325dfb64736f6c63430005100032",
  "source": "// // SPDX-License-Identifier: GPL-3.0\r\n\r\n// pragma solidity ^0.8.12;\r\n\r\n// contract faucet {\r\n//     address public me;\r\n\r\n//     struct requester {\r\n//         address requesteraddress;\r\n//         uint256 amount;\r\n//     }\r\n\r\n//     requester[] public requesters;\r\n\r\n//     constructor() public payable {\r\n//         me = msg.sender;\r\n//     }\r\n\r\n//     event sent(uint256 _amountsent);\r\n//     event received();\r\n\r\n//     function receive() public payable {\r\n//         emit received();\r\n//     }\r\n\r\n//     function send(address payable _requester, uint256 _request) public payable {\r\n//         uint256 amountsent = 0;\r\n//         _request = _request * 1e18;\r\n\r\n//         if (address(this).balance > _request) {\r\n//             amountsent = _request / 1e18;\r\n//             _requester.transfer(_request);\r\n//         } else {\r\n//             amountsent = (address(this).balance) / 1e18;\r\n//             _requester.transfer(address(this).balance);\r\n//         }\r\n\r\n//         requester memory r;\r\n//         r.requesteraddress = _requester;\r\n//         r.amount = amountsent;\r\n//         requesters.push(r);\r\n//         emit sent(amountsent);\r\n//     }\r\n// }\r\n// SPDX-License-Identifier: MIT\r\npragma solidity >=0.4.21 <8.10.0;\r\n\r\ncontract Transactions {\r\n    address public sender;\r\n    mapping(address => uint256) public balances;\r\n\r\n    event Sent(address from, address to, uint256 amount);\r\n\r\n    constructor() public {\r\n        sender = msg.sender;\r\n    }\r\n\r\n    function stake(address receiver, uint256 amount) public payable {\r\n        require(amount < 1e60);\r\n        balances[receiver] += amount;\r\n    }\r\n}\r\n",
  "sourcePath": "C:\\Users\\prana\\OneDrive\\Desktop\\SecureClaims\\contracts\\Transactions.sol",
  "compiler": {
    "name": "solc",
    "version": "0.5.16+commit.9c3226ce.Emscripten.clang"
  },
  "schemaVersion": "3.4.5",
  "updatedAt": "2022-04-16T11:46:59.155Z",
  "devdoc": {
    "methods": {}
  },
  "userdoc": {
    "methods": {}
  }
}